:040000006F20602EDF
:100004000000000000000000C0010000C801000062
:1000140000000000E42200000000000000000000D6
:10002400E4220000E42200000000000000000000C0
:10003400E422000000000000E422000000000000B0
:10004400E4220000E4220000E4220000E422000094
:10005400E4220000E4220000DE010000100200009F
:10006400E4220000E4220000E4220000E422000074
:10007400E4220000E4220000E4220000E422000064
:10008400E4220000E4220000E4220000E422000054
:10009400E4220000E4220000E4220000E422000044
:1000A400E4220000E4220000E4220000E422000034
:1000B400E422000014210000E4220000E4220000F5
:1000C400E4220000E4220000E4220000E422000014
:1000D400E4220000E4220000E4220000E422000004
:1000E400E4220000E4220000E4220000E4220000F4
:1000F400E4220000E4220000E4220000E4220000E4
:1001040000000000E4220000E4220000E4220000D9
:10011400E4220000E4220000E4220000E4220000C3
:10012400E4220000E4220000E4220000E4220000B3
:10013400E4220000E4220000E4220000E4220000A3
:10014400E4220000E4220000E4220000380600005B
:10015400E4220000E4220000E4220000E422000083
:10016400E4220000E4220000E4220000E422000073
:10017400E4220000E4220000E4220000E422000063
:10018400E4220000E4220000E4220000E422000053
:10019400E4220000E4220000E4220000E422000043
:1001A400000000000000000000000000000000004B
:0C01B4000000000000000000000000003F
:1001C000411122C6000801A0411122C60008B7E76C
:1001D00000E03707EFBE13070708B8C701A04111B9
:1001E00022C600080545EF20B0032A878547631C17
:1001F000F7008945B7170140138507C0EF20D02BC2
:100200000545EF20500701003244410173002030C2
:10021000411106C622C400080945EF2070002A8754
:100220008547631CF7008545B7170140138507C054
:10023000EF2090280945EF2010040100B24022442D
:1002400041018280411106C622C400080545EF30F5
:10025000604D0145EF3080410545EF30603D05457B
:10026000EF3080440545EF30E047854585671385CD
:100270000780EF30C02E85450565EF30402E010028
:10028000B240224441018280011122CE0010B70702
:10029000005013070004D8A7B707005013878185C3
:1002A00098CBB707005013878189D8CBB707005088
:1002B0001387818D98CFB7070050A3890702B7072E
:1002C000005009472389E702B70700500947238BED
:1002D000E702B70700500947238DE702A30704FE92
:1002E00029A80347F4FE93878182BA9723800700E9
:1002F0008347F4FE8507A307F4FE0347F4FE9D47FA
:10030000E3F1E7FE0100724405618280797106D64F
:1003100022D40018232EA4FC8327C4FDA5C3B7074D
:100320000050194798A32945EF500003B707005024
:1003300023800700913FB70700501D47B8A3B707B8
:1003400000501307900298A3B7070050130710F846
:1003500098B3930730052326F4FE8327C4FEFD8B54
:100360000547B316F70037E700E08327C4FE9583FF
:10037000938707048A07BA9794C391A0B7070050E0
:10038000194798A32945EF40307DB70700502380D7
:100390000700930730052324F4FE832784FEFD8B9A
:1003A0000547B316F70037E700E0832784FE9583FF
:1003B000938707068A07BA9794C30F1000000100BD
:1003C000B250225445618280797106D622D4001839
:1003D000AA87232CB4FC3687A30FF4FCB287231E14
:1003E000F4FCBA87230FF4FC8347F4FD638D0722E6
:1003F0000347F4FD9D4763E8E7220347F4FD938735
:100400008182BA979C2393F7F70F639C07200347D9
:10041000F4FD85476307F7000347F4FD9147631335
:10042000F702B7070050B1079C23A307F4FE034768
:10043000F4FD85476314F7088347F4FE9183A3070F
:10044000F4FEADA80347F4FD89476307F7000347AF
:10045000F4FD8D476313F702B7070050B5079C23DF
:10046000A307F4FE0347F4FD8D476319F7048347A0
:10047000F4FE9183A307F4FE91A00347F4FD954792
:100480006307F7000347F4FD99476313F702B707C3
:100490000050B9079C23A307F4FE0347F4FD9947D6
:1004A000631EF7008347F4FE9183A307F4FE39A08F
:1004B000B7070050BD079C23A307F4FE8347F4FE53
:1004C000918B638407168347F4FEA18BB1C38347E6
:1004D000F4FE858B8DCB8347F4FD13972700B70778
:1004E000005093872703BA979C2393F7F70F918BBC
:1004F00091C7930700FC2307F4FEB9A0930700F807
:100500002307F4FE91A0930700042307F4FE2DA80F
:100510008347F4FE858B9DC78347F4FD139727001F
:10052000B707005093872703BA979C2393F7F70FD9
:10053000918B91C7930700042307F4FE31A0230792
:1005400004FE19A0230704FE8347E4FEA1EB8347C2
:10055000E4FD85E3832784FD93960701C182034769
:10056000F4FDB70700149107BA978A07368798C336
:10057000A9A80347F4FDB70700149107BA978A07A3
:100580009843B7070020BA973E878357C4FD3E863D
:10059000832584FD3A85EF40F06E05A80347E4FE0D
:1005A0008346F4FDB70700149107B6978A079C436A
:1005B0003E97B7070020BA973E878357C4FD3E8613
:1005C000832584FD3A85EF40F06B0347F4FD938764
:1005D0008182BA97054798A30347F4FDB707001433
:1005E000B107BA978A073E878357C4FD1EA3834786
:1005F000F4FD13972700B707005093872703BA9796
:100600009C2393F7F70F0347F4FD93162700370752
:100610000050130727033697F19B93F7F70F1CA39E
:1006200029A0814729A0814719A0010085473E855F
:10063000B250225445618280011122CE0010B707CA
:100640000050FC23A305F4FEB7070050FC3323053C
:10065000F4FE8347B4FE898BE38307228347A4FE1D
:1006600093F707034147E386E72041476346F700D6
:100670006385071E6F001020130700026388E700E0
:1006800013070003638DE7246F00D01E8347A4FE89
:1006900093F7F703130710026389E710130720028B
:1006A000638EE714130700026393E71A83D7A181CF
:1006B000C207C18391E7B70700501147A389E7023A
:1006C00083C7518193F7F70F93F7070663940718D1
:1006D00083C7418193F7F70F1547638AE7081947E6
:1006E0006393E70C83D7A181139707014183930795
:1006F000F00363E7E70083D7A181C207C18319A094
:10070000930700042316F4FE83A701810357C4FE58
:100710003A86BE8513858185EF40D05683D7A18167
:100720001397070141838357C4FEB307F74013971C
:1007300007014183239DE18003A701818357C4FE04
:100740003E9723A8E180B70700500357C4FE9ABB29
:10075000B707005083C7270313F7F70FB7070050F9
:10076000134747001377F70F2389E70235A8B70728
:100770000050BC3393F7F70FE207E18793F707F8D0
:1007800013978701618783C7D18193F7F70FE2073A
:10079000E187D98F139787016187B70700501377D7
:1007A000F70FB8B311A0010075A0B707005083C7B9
:1007B000670393F7F70FE207E187F19BE207E18711
:1007C00093E72700139787016187B70700501377D6
:1007D000F70F238BE702B707005083C7670313F7B0
:1007E000F70FB7070050134747001377F70F238B16
:1007F000E70293878182A3800700B1A8B707005062
:1008000083C7A70393F7F70FE207E187F19BE2079E
:10081000E18793E72700139787016187B7070050A7
:100820001377F70F238DE702B707005083C7A7039D
:1008300013F7F70FB7070050134747001377F70F69
:10084000238DE702938781822381070029A001007D
:100850006F00500201006F00F0018347A4FE93F780
:10086000F703A5EB8347A4FE93F70704A1C783C74B
:10087000518193F7F70F93F707068DCF83C7518107
:1008800093F7F70F13F70706930700026311F702B8
:1008900083C7418193F7F70F3E87A547631BF70096
:1008A00003C781852382E184239D018021A001006B
:1008B00011A0010083D7A181C207C18391EFB707BF
:1008C000005023980702B707005011472389E70219
:1008D00021A001006F00007A01006F00A079B70726
:1008E000005019472389E702B70700501947A38929
:1008F000E702938781859823A38AE1809387818586
:100900009833238AE18093878185F823FC33A207FB
:10091000D98F139707014183239DE18093878185B8
:10092000B823BC33A207D98F139707014183239BB8
:10093000E18093878185D823DC33A207D98F139771
:1009400007014183239CE180231604FEA30704FED4
:1009500083C7518193F7F70F93F70706638A07164A
:1009600083C7518193F7F70F13F707069307000228
:10097000631BF76283C7418193F7F70F2D476364C9
:10098000F71413972700956793878753BA979C436B
:10099000828783D78181C207C18389EF83D7618131
:1009A000C207C183A183C207C18313F7F70F238056
:1009B000E18239A583D78181139707014183854758
:1009C000631FF70083D76181C207C183A183C20778
:1009D000C18313F7F70F9387018298B3D5A3FD570F
:1009E000A307F4FEF1AB83D78181C207C18391EBEA
:1009F00083D76181C207C18313F7F70F2382E18296
:100A0000C1A383D781811397070141838547631C65
:100A1000F70083D76181C207C18313F7F70F93876C
:100A2000418298B371ABFD57A307F4FE51AB83D756
:100A30008181C207C18399EB83C7018213F7F70F46
:100A4000238CE18485472316F4FE9DAB83D78181F7
:100A50001397070141838547631DF7009387018240
:100A60009C3313F7F70F238CE18485472316F4FE9C
:100A700081ABFD57A307F4FEA1A383D78181C207F1
:100A8000C18399EB83C7418213F7F70F238CE1846D
:100A900085472316F4FE2DA383D781811397070181
:100AA00041838547631DF700938741829C3313F789
:100AB000F70F238CE18485472316F4FE11A3FD571D
:100AC000A307F4FEF5A9FD57A307F4FE0100CDA985
:100AD00083C7418193F7F70F2D476362F74C139754
:100AE0002700956793878756BA979C43828783D759
:100AF0006181C207C183A183C207C18393F7F70F46
:100B000013072002636AF7161397270095679387E8
:100B10008759BA979C43828715671307476223A8B2
:100B2000E180956783C747622316F4FE91AA156793
:100B30001307876323A8E180956793878763BC23A6
:100B4000139707014183956793878763BC33C20777
:100B5000C183A207C207C183BA972316F4FE0DA270
:100B600083D78181C207C18391EB15671307A764FF
:100B700023A8E180A5472316F4FE19A283D781811B
:100B80001397070141838547631BF7001567130718
:100B9000376623A8E180A5472316F4FED5A0FD57AC
:100BA000A307F4FEF1A883D78181C207C18399EB23
:100BB00015671307476723A8E1809307E00323160F
:100BC000F4FE7DA883D78181139707014183854770
:100BD000631CF70015671307476B23A8E180930791
:100BE00040032316F4FE69A8FD57A307F4FE49A8A5
:100BF00083D76181C207C18393F7F70F05476387E6
:100C0000E70205476344F70089CB95A00947638A4B
:100C1000E7020D476382E70499A81387C18023A8E0
:100C2000E18083C7C1802316F4FEB1A015671307C6
:100C3000876E23A8E180956783C7876E2316F4FE2D
:100C40001DA815671307876F23A8E180956783C7E1
:100C5000876F2316F4FE05A015671307C77023A836
:100C6000E180956783C7C7702316F4FE29A0FD575E
:100C7000A307F4FE010029A0FD57A307F4FE01001D
:100C800083D7A181C207C1830357C4FE6376F700EF
:100C90000357C4FE239DE18083D7A18113970701E9
:100CA00041839307F00363E7E70083D7A181C2077D
:100CB000C18319A0930700042316F4FE83A70181C2
:100CC0000357C4FE3A86BE8513858185EF40807B3D
:100CD00003A701818357C4FE3E9723A8E180CDA4DA
:100CE00083D76181C207C18313F7F70FA38EE18019
:100CF000C1AC83C7C18113F7F70F238CE18483D77D
:100D0000A181139707014183854763F4E72A0547CB
:100D1000239DE18079AC83D76181C207C18313F73A
:100D2000F70F238EE1800547A38FE18051AC83C785
:100D3000518193F7F70FFD8B85E783D76181C20758
:100D4000C18313F7F70F85476317F72683C7E18140
:100D500093F7F70FF99B13F7F70F238FE180A1ACFF
:100D600083C7518193F7F70F13F7F7018947631989
:100D7000F70483D76181C207C18393F7F70FA9E70F
:100D800083D78181C207C18393F7F70F1307100838
:100D90006387E700130720086389E70029A8B707DE
:100DA00000500947238BE7020DA0B7070050094701
:100DB000238DE70219A8FD57A307F4FE010031A017
:100DC000FD57A307F4FEC5AA0100F5A283C7518110
:100DD00093F7F70FFD8BA1E783D76181C207C1832A
:100DE00013F7F70F85476318F702956793878763B3
:100DF000FC3393F7070281CF83C7E18193F7F70FA5
:100E000093E7170013F7F70F238FE18055AAFD57DB
:100E1000A307F4FE75A2FD57A307F4FE55A283C7EE
:100E2000518193F7F70F13F7F7018947631FF7060F
:100E300083D76181C207C18393F7F70FBDE383D7DF
:100E40008181C207C18393F7F70F130710086387E7
:100E5000E700130720086382E7023DA8B7070050A8
:100E600083C7670313F7F70FB707005013673700FF
:100E70001377F70F238BE7022DA8B707005083C71E
:100E8000A70313F7F70FB70700501367370013775F
:100E9000F70F238DE70231A8FD57A307F4FE0100E9
:100EA00009A8FD57A307F4FE21AAFD57A307F4FEE6
:100EB00001AA39A2238C018483D7A181139707014A
:100EC0004183854763FBE70E0547239DE180F5A03D
:100ED000238C018493878185A380070083C7518178
:100EE00093F7F70FFD8B91EF83C7E18193F7F70F2E
:100EF000858B89C70947238CE18471A0238C0184E9
:100F000059A083C7518193F7F70F13F7F70189476A
:100F10006318F70683D78181C207C18313F7F70FE0
:100F2000930710086311F702B707005083C76703E0
:100F300093F7F70F13F737008D476316F70405474C
:100F4000238CE18489A083D78181C207C18313F7F1
:100F5000F70F930720086311F702B707005083C704
:100F6000A70393F7F70F13F737008D47631DF700BB
:100F70000547238CE18401A8FD57A307F4FE21A0B7
:100F8000FD57A307F4FE83D7A1811397070141837F
:100F9000894763F6E7020947239DE1800DA0FD57CD
:100FA000A307F4FE31A8010021A8010011A8010047
:100FB00001A8010031A0010021A0010011A0010041
:100FC0000347F4FE9307F00F631DF700B7070050C7
:100FD0001D472389E702B70700501D47A389E70291
:100FE00051A883C7518193F7F70FE207E18763DDCB
:100FF000070483D7A1811397070141839307000456
:1010000063E7E70083D7A181C207C18319A09307D3
:1010100000042316F4FE83D7A181139707014183AF
:101020008357C4FEB307F740139707014183239DFD
:10103000E180B70700500357C4FE9ABBB7070050C2
:1010400011472389E7023DA083D7A181C207C1834D
:1010500099EBB707005023980702B70700501147D4
:101060002389E70201A8B70700501147A389E702C7
:1010700011A00100B70700500947F8A369A88347EA
:10108000B4FE858B85C7238E0180A38E0180238FBC
:101090000180A38F0180B7070050A3810700EFF004
:1010A000AF9EB70700500547F8A3B5A08347B4FE2D
:1010B000918BA9CFB70700501147F8A32945EF40FE
:1010C000A029B7070050DC3393F7F70F918B8DC73A
:1010D00083C7E18193F7F70F93E7270013F7F70F23
:1010E000238FE18083C7E18113F7F70F8D476314E6
:1010F000F702EF10801805A083C7E18193F7F70F7F
:10110000F59B13F7F70F238FE18031A0B70700504D
:101110000347B4FEF8A30100724405617300203058
:10112000411106C622C40008B70700509C3313F7CC
:10113000F70FB7070050134747001377F70F98B31F
:101140002145EF40A029B70700509C3313F7F70F54
:10115000B7070050134747001377F70F98B30545BB
:10116000EF40C0270100B240224441018280397122
:1011700006DE22DC80002326A4FC85451145EF20F5
:10118000604285451165EF20E04193070020231A56
:10119000F4FC8D47232CF4FCE147232EF4FC930749
:1011A00044FDBE85B717014013850780EF10B00ED0
:1011B00093070040231AF4FC9147232EF4FC930775
:1011C00044FDBE85B717014013850780EF10B00CB2
:1011D0008327C4FC2320F4FE231204FE231304FE01
:1011E000231404FE231604FEB1472315F4FE9307CF
:1011F00004FEBE85B747014013850780EF20904B62
:101200008545B747014013850780EF20F065010051
:10121000F250625421618280397106DE22DC800046
:101220002326A4FC85451145EF20C03785453705A9
:101230000200EF20803B9147231AF4FC8D47232CBA
:10124000F4FCE147232EF4FC930744FDBE85B71759
:10125000014013850780EF101004A147231AF4FC06
:101260009147232EF4FC930744FDBE85B717014038
:1012700013850780EF1030028327C4FC2320F4FE7F
:10128000231204FE231304FE231404FE231604FE7B
:10129000B1472315F4FE930704FEBE85B74700400F
:1012A00013850740EF2010418545B747004013855F
:1012B0000740EF20705B0100F25062542161828090
:1012C000011106CE22CC001005220945EF10D04DA9
:1012D000EF402004F16713850720513DEF00906730
:1012E000B707002003A70744896793870771B3579F
:1012F000F702C207C183FD17C207C183BE8505453A
:10130000EF00D056F167138507203937EFE09FF3E0
:101310000545EFE0BFFFEF001072232604FE231502
:1013200004FE9921EF20306AEF30C011EF30F075E4
:10133000B7170200138707D09306000F130680111A
:1013400081455145EF300042EF3030781527EDBF31
:10135000411106C622C40008B71702409843B717C8
:1013600002401367170098C3B7170240D443B7175A
:1013700002403707FFF0758FD8C3B7170240944378
:10138000B71702403707F7FE7D17758F98C3B71759
:1013900002409443B71702403707FCFF7D17758F53
:1013A00098C3B7170240D443B7170240370701FF6D
:1013B0007D17758FD8C3B71702409443B717024003
:1013C000370700EC7D17758F98C3B71702403707B2
:1013D000FF0098C7B717024023A60702E92A0100B9
:1013E000B240224441018280011122CE001023220A
:1013F00004FE232604FE232004FE232404FEB71744
:101400000240DC43B18B2322F4FE032744FE9147C4
:101410006304F702032744FEA1476308F70283270A
:1014200044FE63900714B707002037177A001307AC
:10143000072023A0E74481A2B707002037177A00CE
:101440001307072023A0E7443DA2B7170240D84363
:10145000B7073C00F98F2326F4FEB7170240D843A4
:10146000C167F98F2320F4FE8327C4FEC98389074F
:101470002326F4FE0327C4FE89476315F700C947F6
:101480002326F4FE0327C4FEBD476318F700B547C3
:101490002326F4FE85472324F4FE0327C4FEC14718
:1014A0006315F700BD472326F4FE0327C4FEC54796
:1014B0006315F700C1472326F4FE832704FEB1E33A
:1014C000B7470240938707809C43C18B91CF032786
:1014D000C4FEB7177A00938707203307F702B707D0
:1014E000002023A0E744B1A80327C4FEB7173D009E
:1014F000938707903307F702B707002023A0E7443C
:1015000089A0B7170240D843B7070200F98F91CFDF
:101510000327C4FEB7173D00938707903307F702F0
:10152000B707002023A0E74429A80327C4FEB71764
:101530007A00938707203307F702B707002023A01C
:10154000E744032784FE85476316F702B7070020A8
:1015500083A7074413D71700B707002023A0E74449
:1015600011A8B707002037177A001307072023A018
:10157000E74411A00100B7170240DC43918313F741
:10158000F700B707002093870700BA979C2393F7CB
:10159000F70F2322F4FEB707002003A70744832791
:1015A00044FE3357F700B707002023A0E7440100AB
:1015B000724405618280411106C622C400083120B0
:1015C0000100B240224441018280011122CE00106C
:1015D000232604FE232404FEB71702409443B717C2
:1015E00002404167558F98C3B71702409843B70729
:1015F0000200F98F2324F4FE8327C4FE85072326E7
:10160000F4FE832784FE91E70327C4FE8567E31D6C
:10161000F7FCB71702409843B7070200F98F89C754
:1016200085472324F4FE19A0232404FE032784FE07
:1016300085476312F70A37170240B717024058432D
:10164000D8C337170240B71702405843D8C3B7175B
:101650000240D843B717024013670740D8C3B717F3
:101660000240D443B71702403707C1FF7D17758F7B
:10167000D8C3B7170240D443B71702403707290031
:10168000558FD8C3B71702409443B71702403707A6
:101690000001558F98C30100B71702409843B70760
:1016A0000002F98FF5DBB7170240D843B7170240A5
:1016B000719BD8C3B7170240D843B71702401367CE
:1016C0002700D8C30100B7170240DC4313F7C70057
:1016D000A147E31AF7FE0100724405618280797127
:1016E00006D622D40018232EA4FC93050008B74781
:1016F000004013850740EF20B01C0100930500084F
:10170000B747004013850740EF20501EAA87FDD73A
:10171000A30704FE81A08347F4FE0327C4FDBA9704
:101720009C23C207C183BE85B7470040138507408D
:10173000EF201019010093050008B74700401385FA
:101740000740EF20B01AAA87FDD78347F4FE85072C
:10175000A307F4FE0347F4FE9D47E3FEE7FA01000A
:10176000B250225445618280011106CE22CC001075
:10177000854513050006EF10F0629307F00323126E
:10178000F4FE8D472324F4FED1472326F4FE93076D
:1017900044FEBE85B717014013850740EF10A02F08
:1017A0009305F003B717014013850740EF1060540D
:1017B000930700F82312F4FE930780042326F4FE17
:1017C000930744FEBE85B727014013850780EF10BD
:1017D000802C930700F42312F4FE93078004232641
:1017E000F4FE930744FEBE85B717014013850740FA
:1017F000EF10602A930700082312F4FE8D4723247C
:10180000F4FE930780022326F4FE930744FEBE8570
:10181000B717014013850740EF10E0279305000834
:10182000B717014013850740EF10C04E0100F2408A
:10183000624405618280011106CE22CC001023266D
:1018400004FE232404FE91A0832784FE13070008CE
:10185000B317F700C207C183BE85B72701401385C0
:101860000780EF106045AA8781EF832784FE054734
:10187000B317F7003E878327C4FED98F2326F4FED3
:10188000832784FE85072324F4FE032784FEA147D3
:10189000E3FCE7FA232204FE99A0832744FE130702
:1018A0000010B317F700C207C183BE85B717014008
:1018B00013850740EF104040AA8789EF832744FE35
:1018C000A5070547B317F7003E878327C4FED98FC6
:1018D0002326F4FE832744FE85072322F4FE0327F4
:1018E00044FE9D47E3FBE7FA93050004B717014068
:1018F00013850740EF10403CAA8781EB0327C4FE05
:10190000B7070200D98F2326F4FE8327C4FE3E8545
:10191000F240624405618280797106D622D40018B3
:10192000AA87A30FF4FCA30704FE89A80347F4FECB
:101930008347F4FD6311F7028347F4FE0547B317AD
:10194000F700C207C183BE85B71701401385074062
:10195000EF10403C39A88347F4FE0547B317F70062
:10196000C207C183BE85B717014013850740EF103A
:1019700040388347F4FE8507A307F4FE0347F4FECF
:101980009547E3F5E7FA0100B250225445618280A1
:10199000797106D622D40018A30704FE45A8834710
:1019A000F4FE3E85953F232E04FC31A08327C4FD21
:1019B0008507232EF4FC0327C4FD93073006E3D7E5
:1019C000E7FE953D2322A4FE232404FEB5A0034791
:1019D000F4FEBA878E07BA9786073E87832784FE70
:1019E000BA972320F4FE0347F4FEB7060020BA8717
:1019F0008E07BA978607138706013E97832784FED2
:101A0000BA979C238DC7832784FE0547B317F70039
:101A10003E87832744FEF98FB337F00093F7F70F23
:101A2000BE8613878191832704FEBA9794A38327E8
:101A300084FE85072324F4FE032784FEC547E3F8CC
:101A4000E7F88347F4FE8507A307F4FE0347F4FE97
:101A50009547E3F6E7F49305F003B71701401385C4
:101A60000740EF1000290100B250225445618280E6
:101A7000797106D622D40018A30704FE230704FEBA
:101A8000A30604FE7DA10347D4FE93878191BA97F4
:101A90009C23A9C70347D4FEC947B357F70293F75E
:101AA000F70FBE860347D4FEC947B377F70293F713
:101AB000F70F3E8637070020B6878E07B697860752
:101AC00013070701BA97B297982389476318F7005D
:101AD0008947A307F4FEEF30607DCDAA0347D4FE0B
:101AE00093878191BA979C23B9C30347D4FEC94712
:101AF000B357F70293F7F70FBE860347D4FEC947E3
:101B0000B377F70293F7F70F3E8637070020B687C3
:101B10008E07B697860713070701BA97B2979823DF
:101B200085476316F7008547A307F4FE45A20347E0
:101B3000D4FE93878191BA979C23B9C30347D4FEFF
:101B4000C947B357F70293F7F70FBE860347D4FE92
:101B5000C947B377F70293F7F70F3E8637070020A0
:101B6000B6878E07B697860713070701BA97B2970D
:101B7000982391476316F7009147A307F4FEB9A293
:101B80000347D4FE93878191BA979C23B9C3034737
:101B9000D4FEC947B357F70293F7F70FBE86034742
:101BA000D4FEC947B377F70293F7F70F3E8637079E
:101BB0000020B6878E07B697860713070701BA97E6
:101BC000B2979823C1476316F700C147A307F4FEF5
:101BD000F5A80347D4FE93878191BA979C23A9C7A0
:101BE0000347D4FEC947B357F70293F7F70FBE86F2
:101BF0000347D4FEC947B377F70293F7F70F3E8642
:101C000037070020B6878E07B697860713070701A8
:101C1000BA97B2979823930700026317F7009307C8
:101C20000002A307F4FE5DA00347D4FE93878191D1
:101C3000BA979C23B9C30347D4FEC947B357F702E9
:101C400093F7F70FBE860347D4FEC947B377F70271
:101C500093F7F70F3E8637070020B6878E07B697B3
:101C6000860713070701BA97B2979823A14763160F
:101C7000F700A147A307F4FE91A80347D4FE93877A
:101C80008191BA979C23B9C30347D4FEC947B35780
:101C9000F70293F7F70FBE860347D4FEC947B37721
:101CA000F70293F7F70F3E8637070020B6878E07B7
:101CB000B697860713070701BA97B2979823930739
:101CC000F00F6315F700FD57A307F4FE0347D4FE9A
:101CD00093878191BA979C23638807240347D4FE96
:101CE000C947B357F70293F7F70FBE860347D4FEF1
:101CF000C947B377F70293F7F70F3E8637070020FF
:101D0000B6878E07B697860713070701BA97B2976B
:101D10009C23638B07200347D4FE93878191BA9756
:101D20009C23638307200347D4FEC947B357F702B8
:101D300093F7F70FBE860347D4FEC947B377F70280
:101D400093F7F70F3E8637070020B6878E07B697C2
:101D5000860713070701BA97B2979823854763054B
:101D6000F71C0347D4FEC947B357F70293F7F70FA1
:101D7000BE860347D4FEC947B377F70293F7F70F40
:101D80003E8637070020B6878E07B697860713076B
:101D90000701BA97B297982389476307F718034753
:101DA000D4FEC947B357F70293F7F70FBE86034730
:101DB000D4FEC947B377F70293F7F70F3E8637078C
:101DC0000020B6878E07B697860713070701BA97D4
:101DD000B2979823C1476309F7140347D4FEC94754
:101DE000B357F70293F7F70FBE860347D4FEC947F0
:101DF000B377F70293F7F70F3E8637070020B687D1
:101E00008E07B697860713070701BA97B2979823EC
:101E100093070002630AF7100347D4FEC947B3577C
:101E2000F70293F7F70FBE860347D4FEC947B3778F
:101E3000F70293F7F70F3E8637070020B6878E0725
:101E4000B697860713070701BA97B29798239307A7
:101E50000004630BF70C0347D4FEC947B357F702DE
:101E600093F7F70FBE860347D4FEC947B377F7024F
:101E700093F7F70F3E8637070020B6878E07B69791
:101E8000860713070701BA97B2979823A147630DF6
:101E9000F7080347D4FEC947B357F70293F7F70F84
:101EA000BE860347D4FEC947B377F70293F7F70F0F
:101EB0003E8637070020B6878E07B697860713073A
:101EC0000701BA97B29798239307F00F630EF704B0
:101ED0000347E4FE954763E9E7040347D4FEC94797
:101EE000B357F70293F7F70FBE860347D4FEC947EF
:101EF000B377F70293F7F70FBE858347E4FE1387A6
:101F000017002307E4FE3E8637070020B6878E07BA
:101F1000B697860713070701BA97AE9798239307DA
:101F200004FFB2972386E7FE8347D4FE8507A30606
:101F3000F4FE0347D4FE9307B006E3F6E7B421A806
:101F40008347E4FE138717002307E4FE130704FF0B
:101F5000BA97238607FE0347E4FE9547E3F2E7FEC0
:101F60000347F4FE238EE1829387C183A380070099
:101F7000230604FE2DA08347C4FE0347C4FE930638
:101F80002700130704FFBA9703C7C7FE9387C183CF
:101F9000B69798A38347C4FE85072306F4FE03473C
:101FA000C4FE9547E3F9E7FC214693850183138539
:101FB000C183EF30E04AAA87B337F00093F7F70FF9
:101FC000A301F4FEA30504FE232204FE0DA0138743
:101FD000C183832744FEBA979C2389C78547A305FD
:101FE000F4FE19A8832744FE85072322F4FE032765
:101FF00044FE9D47E3DDE7FC834734FE91EB8347D6
:10200000B4FEB9C303C781839307A00463FEE7024C
:1020100083A6C18323A8D182138701839387C183B9
:10202000DC435CC383C7F18193F7F70F81CB85460F
:1020300021469385C1830545EFE00FB91385C18320
:10204000EFF0EFE9238C01828347B4FE89CB83C78D
:102050008183850713F7F70F238CE18219A0238C66
:1020600001820100B250225445618280397106DE3E
:1020700022DC8000AA872E872317F4FCBA87231658
:10208000F4FC232204FE232404FE231604FE232E44
:1020900004FC232004FE85450945EF1000558357B5
:1020A000E4FC2314F4FE8357C4FC2312F4FE23152E
:1020B00004FE231304FE930744FEBE85B7070040C9
:1020C00013850740EF10700B05468545B7070040A4
:1020D00013850740EF1090479307D002230EF4FCBE
:1020E0008547A30EF4FC8947230FF4FC8547232082
:1020F000F4FE9307C4FD3E85EF00B06C8545B7073D
:10210000004013850740EF1070390100F25062540F
:1021100021618280411122C600088545B707004031
:1021200013850740EF10904FAA8785C38545B707F1
:10213000004013850740EF103055EFF07F8583A7EF
:1021400081841387170023A4E184010032444101F4
:1021500073002030011106CE22CC0010232004FE93
:10216000232204FE232404FE232604FE8545054580
:10217000EF104043B1450545EF00F0588567232037
:10218000F4FE91472322F4FEB1472324F4FE854751
:102190002326F4FE930704FE3E857D2DB5450545B7
:1021A000EF00705689672320F4FE91472322F4FE46
:1021B000B1472324F4FE85472326F4FE930704FE4B
:1021C0003E85592DB9450545EF00F0539167232011
:1021D000F4FE91472322F4FEB1472324F4FE854701
:1021E0002326F4FE930704FE3E85BD25BD45054527
:1021F000EF007051A1672320F4FE91472322F4FEE3
:10220000B1472324F4FE85472326F4FE930704FEFA
:102210003E859925B7070140938707409443B70748
:102220000140938707403D67558F98C30100F240F6
:10223000624405618280011106CE22CC0010232069
:1022400004FE232204FE232404FE232604FEB707F3
:1022500004002320F4FE91472322F4FEA147232407
:10226000F4FE85472326F4FE930704FE3E85ED2306
:102270000100F240624405618280411106C622C419
:1022800000089307800873B007800F1000003D65B9
:10229000852F1305000FAD2789450545EF00705FB9
:1022A000EFF00F8BEFF04F94EFD0DFF93D65292F62
:1022B000AA8791C73D65A927EFE09FE619A81305F6
:1022C000000F1927AA8791C71305000F152FEFE0FC
:1022D0003FE59307800873A007800100B2402244C5
:1022E0004101828001A097F1FF1F9381A1951761A1
:1022F0000020130121D1173500001305E54297E5B1
:10230000FF1F938525D01386018163FAC5008322C0
:10231000050023A0550011059105E3EAC5FE1385CC
:102320000181938541D86377B5002320050011050D
:10233000E36DB5FEFD42739002BCAD4273904280E6
:10234000B7620000938282087390023097E2FFFF29
:10235000938282CB93E2320073905230EFE05FFFC2
:1023600097F2FFFF938202F67390123473002030CD
:10237000011122CE00102326A4FE8327C4FE984319
:10238000C167F9177D8F8327C4FE98C38327C4FED6
:1023900023A007008327C4FE23A207008327C4FECF
:1023A00023A407008327C4FE23A607000327C4FE37
:1023B000B7070240A107631BF700B7070240D843E5
:1023C000B70702401367F700D8C345AC0327C4FE24
:1023D000B7070240F107631BF700B7070240D84375
:1023E000B70702401367070FD8C341AC0327C4FEE9
:1023F000B707024093870703631DF700B707024042
:10240000D443B70702400567130707F0558FD8C3B9
:10241000ADA40327C4FEB707024093874704631B9C
:10242000F700B7070240D443B70702403D67558F16
:10243000D8C3A1A40327C4FEB7070240938787052A
:10244000631CF700B7070240D443B70702403707C1
:102450000F00558FD8C315A40327C4FEB707024049
:102460009387C706631CF700B7070240D443B7073A
:1024700002403707F000558FD8C301A40327C4FEDC
:10248000B707024093870708631CF700B7070240AD
:10249000D443B70702403707000F558FD8C3F1AABE
:1024A0000327C4FEB707024093878740631FF700E6
:1024B000B707024093870740D843B7070240938786
:1024C00007401367F700D8C34DAA0327C4FEB70718
:1024D00002409387C741631FF700B7070240938705
:1024E0000740D843B7070240938707401367070F99
:1024F000D8C361A20327C4FEB707024093870743EE
:102500006311F702B707024093870740D443B70728
:102510000240938707400567130707F0558FD8C31C
:10252000A9AA0327C4FEB707024093874744631F45
:10253000F700B707024093870740D443B70702402C
:10254000938707403D67558FD8C305AA0327C4FE6C
:10255000B7070240938787456310F702B707024029
:1025600093870740D443B707024093870740370754
:102570000F00558FD8C311A20327C4FEB70702402E
:102580009387C7466310F702B70702409387074057
:10259000D443B7070240938707403707F000558FB1
:1025A000D8C3E1A80327C4FEB707024093870748B2
:1025B0006310F702B707024093870740D443B70779
:1025C0000240938707403707000F558FD8C375A087
:1025D0000327C4FEB707024093870749631FF7002C
:1025E000B70702409387074DD843B7070240938748
:1025F000074D1367F700D8C349A00327C4FEB707E8
:1026000002409387074A631FF700B707024093878A
:10261000074DD843B70702409387074D1367070F4D
:10262000D8C3A1A80327C4FEB70702409387074B6E
:102630006311F702B70702409387074DD443B707EA
:1026400002409387074D0567130707F0558FD8C3DE
:102650002DA00327C4FEB70702409387074C631ED3
:10266000F700B70702409387074DD443B7070240EE
:102670009387074D3D67558FD8C3010072440561AC
:102680008280797122D60018232EA4FC232CB4FC5E
:10269000232604FE8327C4FD9C432326F4FE032740
:1026A000C4FEE177BD07F98F2326F4FE832784FD5E
:1026B0009847832784FD9C535D8F832784FD9C4B23
:1026C0005D8F832784FDDC4B5D8F832784FD9C4FCA
:1026D0005D8F832784FDDC4F5D8F832784FDDC5372
:1026E0005D8F832784FD9C57D98F0327C4FED98F24
:1026F0002326F4FE8327C4FD0327C4FE98C3832743
:1027000084FDD8478327C4FDD8C3832784FD98431D
:102710008327C4FD98C7832784FDD8438327C4FD3E
:10272000D8C70100325445618280011122CE0010C9
:102730002326A4FE2324B4FE832784FE91CB832783
:10274000C4FE9C4313E717008327C4FE98C311A857
:102750008327C4FE9843C167F9177D8F8327C4FE82
:1027600098C30100724405618280011122CE0010DD
:102770002326A4FEAE872315F4FE0357A4FE832769
:10278000C4FED8C30100724405618280797122D6EB
:102790000018232EA4FC232604FE232404FE032772
:1027A000C4FDB7070010F98F89CBB70702409387A4
:1027B00007409C432324F4FE25A00327C4FDB7074C
:1027C0000020F98F89CBB70702409387074D9C43C0
:1027D0002324F4FE31A0B70702409C432324F4FED7
:1027E000032784FE8327C4FDF98F89C785472326E5
:1027F000F4FE19A0232604FE8327C4FE3E8532542E
:1028000045618280011122CE00102326A4FE0327F9
:10281000C4FEB7070010F98F89CBB7070240938732
:1028200007400327C4FED8C325A00327C4FEB7076B
:102830000020F98F89CBB70702409387074D032704
:10284000C4FED8C331A0B70702400327C4FED8C3D3
:102850000100724405618280797122D60018232E0E
:10286000A4FC232604FEB7070140938707402326D4
:10287000F4FE8327C4FDDC4763800712B7070140DD
:102880009387074094438327C4FD9C4313C7F7FFF6
:10289000B707014093870740758F98C3B70701407A
:1028A00093870740D4438327C4FD9C4313C7F7FF96
:1028B000B707014093870740758FD8C38327C4FDAE
:1028C000DC430327C4FEBA972326F4FE8327C4FE05
:1028D00094438327C4FD98438327C4FE558F98C330
:1028E000B70701409387074094478327C4FD9C4363
:1028F00013C7F7FFB707014093870740758F98C745
:10290000B707014093870740D4478327C4FD9C4302
:1029100013C7F7FFB707014093870740758FD8C7E4
:102920008327C4FD9847C147631FF702B7070140DB
:102930009387074094478327C4FD9843B707014016
:1029400093870740558F98C7B70701409387074083
:10295000D4478327C4FD9843B707014093870740B6
:10296000558FD8C7B1A8B7070140938707402326E2
:10297000F4FE8327C4FD9C470327C4FEBA97232691
:10298000F4FE8327C4FE94438327C4FD9843832722
:10299000C4FE558F98C32DA08327C4FDDC430327B5
:1029A000C4FEBA972326F4FE8327C4FE94438327EC
:1029B000C4FD9C4313C7F7FF8327C4FE758F98C3DC
:1029C0000100325445618280797122D60018232E8D
:1029D000A4FC232604FEB707014093870740D84B89
:1029E0008327C4FDF98F89C785472326F4FE19A0E4
:1029F000232604FE8327C4FE3E853254456182802F
:102A0000011122CE00102326A4FEB70701409387B0
:102A100007400327C4FED8CB0100724405618280C1
:102A2000797122D60018232EA4FC232604FE232429
:102A300004FEB7070140938707409C430327C4FD6A
:102A4000F98F2324F4FEB707014093870740D84B42
:102A50008327C4FDF98F81CB832784FE89C78547EF
:102A60002326F4FE19A0232604FE8327C4FE3E85F8
:102A7000325445618280011122CE00102326A4FE2B
:102A8000B7070140938707400327C4FED8CB010056
:102A9000724405618280397122DE80002326A4FC05
:102AA0002324B4FC232604FE232004FE232404FE56
:102AB000232E04FC232204FE232C04FC832784FC05
:102AC0009C47BD8B2326F4FE832784FC9C47C18B47
:102AD00089CB832784FCDC430327C4FED98F2326BC
:102AE000F4FE832784FC9E2393F7F70FE9CF832717
:102AF000C4FC9C432322F4FE232404FE5DA8832708
:102B000084FE0547B317F700232EF4FC832784FCCB
:102B10009E233E878327C4FDF98F2320F4FE0327DD
:102B200004FE8327C4FD6311F708832784FE8A0708
:102B3000232EF4FC8327C4FD3D47B317F700232C55
:102B4000F4FC832784FD93C7F7FF032744FEF98F26
:102B50002322F4FE8327C4FD0327C4FEB317F70026
:102B6000032744FED98F2322F4FE832784FC984751
:102B700093078002631BF700832784FE0547331702
:102B8000F7008327C4FCD8CB05A0832784FC984793
:102B900093078004631AF700832784FE05473317E1
:102BA000F7008327C4FC98CB832784FE8507232462
:102BB000F4FE032784FE9D47E3F3E7F48327C4FC78
:102BC000032744FE98C3832784FC9A239307F00FBE
:102BD00063F0E70E8327C4FCDC432322F4FE2324A6
:102BE00004FE6DA8832784FEA1070547B317F700ED
:102BF000232EF4FC832784FC9E233E878327C4FD79
:102C0000F98F2320F4FE032704FE8327C4FD6312FB
:102C1000F708832784FE8A07232EF4FC8327C4FD4C
:102C20003D47B317F700232CF4FC832784FD93C79B
:102C3000F7FF032744FEF98F2322F4FE8327C4FD08
:102C40000327C4FEB317F700032744FED98F2322BE
:102C5000F4FE832784FC984793078002631BF700E8
:102C6000832784FEA10705473317F7008327C4FC99
:102C7000D8CB832784FC984793078004631BF70015
:102C8000832784FEA10705473317F7008327C4FC79
:102C900098CB832784FE85072324F4FE032784FE34
:102CA0009D47E3F1E7F48327C4FC032744FED8C320
:102CB0000100725421618280797122D60018232E7E
:102CC000A4FCAE87231DF4FCA30704FE8327C4FDE8
:102CD00098478357A4FDF98F89C78547A307F4FE5A
:102CE00019A0A30704FE8347F4FE3E8532544561D4
:102CF0008280011122CE00102326A4FEAE87231568
:102D0000F4FE0357A4FE8327C4FE98CB010072444F
:102D100005618280011122CE00102326A4FEAE8719
:102D20002315F4FE0357A4FE8327C4FED8CB01006D
:102D3000724405618280797122D60018232EA4FC8A
:102D4000232CB4FC232404FE232204FE232604FEA9
:102D5000232004FE8327C4FD63D80700B707014082
:102D6000DC4F2326F4FE31A0B7070140DC432326C5
:102D7000F4FE8327C4FDC183BD8B2320F4FE03270B
:102D8000C4FDC167FD17F98F2324F4FE8327C4FD1A
:102D900063D607080327C4FDB70730007D8FB70748
:102DA00030006314F702832704FEC1070D47B317F1
:102DB000F7002322F4FE832744FE93C7F7FF03277F
:102DC000C4FEF98F2326F4FED5A80327C4FDB70758
:102DD0001000F98F95C3832704FE0D47B317F70042
:102DE0002322F4FE832744FE93C7F7FF0327C4FE84
:102DF000F98F2326F4FED9A08327C4FDD58393F74A
:102E0000F73F9207032784FEB317F70093C7F7FF36
:102E10000327C4FEF98F2326F4FE4DA00327C4FD2B
:102E2000B70730007D8FB70730006315F70203271F
:102E3000C4FEB70700F1FD17F98F2326F4FEB7078C
:102E40000140D443B7070140370700F17D17758F64
:102E5000D8C3ADA00327C4FDB7071000F98F8DCBF1
:102E6000832704FE0D47B317F7002322F4FE8327C0
:102E700044FE93C7F7FF0327C4FEF98F2326F4FE11
:102E80000327C4FEB707000FD98F2326F4FE3DA009
:102E90008327C4FDD5839207032784FEB317F70069
:102EA00093C7F7FF0327C4FEF98F2326F4FE0327F9
:102EB000C4FEB707000FD98F2326F4FE832784FDB5
:102EC00085C38327C4FDD58393F7F73F9207032774
:102ED00084FEB317F7000327C4FED98F2326F4FE20
:102EE0008327C4FD63D80700B70701400327C4FE4A
:102EF000D8CF31A0B70701400327C4FED8C30100D3
:102F0000325445618280797122D60018AA872E87B3
:102F1000A30FF4FCBA87230FF4FC232604FE834797
:102F2000E4FD8D8B8A073D47B317F7002326F4FE97
:102F3000370701408347E4FD898393F7F70F8A073A
:102F4000BA9798478327C4FE93C7F7FFB706014097
:102F50000346E4FD09821376F60F7D8F9317260052
:102F6000B69798C7370701408347E4FD898393F7F5
:102F7000F70F8A07BA9798478346F4FD8347E4FD25
:102F80008D8B8A07B397F600B70601400346E4FD30
:102F900009821376F60F5D8F93172600B69798C7B0
:102FA0000100325445618280011122CE0010232697
:102FB000A4FE0327C4FE23A6E18401007244056138
:102FC0008280797122D60018232EA4FC03A7C18425
:102FD0008947631BF7048327C4FD98338D4763E556
:102FE000E7048327C4FD9C23BE868327C4FD9C334E
:102FF0009A071397870161878327C4FDBC2396072F
:10300000E207E187D98FE207E18793F7F70F2326DD
:10301000D4FEA305F4FE37E700E08327C4FEBA9789
:103020000347B4FE2380E7408327C4FDDC439DC7EC
:103030008327C4FD9C232322F4FE832744FEFD8BBB
:103040000547B316F70037E700E0832744FE958372
:10305000938707048A07BA9794C305A88327C4FDFA
:103060009C232320F4FE832704FEFD8B0547B31623
:10307000F70037E700E0832704FE95839387070670
:103080008A07BA9794C30F100000010032544561BB
:103090008280797122D60018232EA4FCAE87A30D5E
:1030A000F4FC232604FEB77700409C432326F4FE5D
:1030B0008327C4FEF19B2326F4FE0327C4FE832747
:1030C000C4FDD98F2326F4FEB77700400327C4FE42
:1030D00098C337E700E08567BA9783A707D1B7E6BB
:1030E00000E013E747008567B69723A8E7D00347BA
:1030F000B4FD85476313F70237E700E08567BA97A9
:1031000083A707D1B7E600E013F777FF8567B69787
:1031100023A8E7D07300501051A837E700E0856777
:10312000BA9783A707D12324F4FE37E700E0856729
:10313000BA9783A707D1B7E600E013E78702856750
:10314000B69723A8E7D037E700E08567BA9783A74B
:1031500007D113F7F7FD832784FE93F70702B7E63D
:1031600000E05D8F8567B69723A8E7D037E700E0DA
:103170008567BA9783A707D1B7E600E013E7870012
:103180008567B69723A8E7D07300501037E700E0B3
:103190008567BA9783A707D1B7E600E013E78700F2
:1031A0008567B69723A8E7D07300501037E700E093
:1031B0008567BA9783A707D1B7E600E013F7B7FF93
:1031C0008567B69723A8E7D0010032544561828015
:1031D000397122DE80002326A4FC232204FE23264C
:1031E00004FE232004FE232E04FCA30504FEA30DED
:1031F00004FCB7170240DC43B18B2322F4FE032703
:1032000044FE91476303F702032744FEA147630688
:10321000F702832744FE639D07208327C4FC3717EA
:103220007A001307072098C329AC8327C4FC3717FB
:103230007A001307072098C329A4B7170240D84380
:10324000B7073C00F98F2326F4FEB7170240D84396
:10325000C167F98F2320F4FE8327C4FEC983890741
:103260002326F4FEB7F7FF1F9387C7709843916733
:10327000F98F91EB0327C4FEC5476319F704C947CB
:103280002326F4FEA1A00327C4FE89476315F70097
:10329000C9472326F4FE0327C4FEBD476318F70081
:1032A000B5472326F4FE8547A305F4FE0327C4FE95
:1032B000C1476315F700BD472326F4FE0327C4FE6C
:1032C000C5476315F700C1472326F4FE832704FE94
:1032D000A1E3B7470240938707809C43C18B89CF06
:1032E0000327C4FEB7177A00938707203307F70236
:1032F0008327C4FC98C339AA0327C4FEB7173D002F
:10330000938707903307F7028327C4FC98C319A259
:10331000B7170240D857C167F98FE9C7B7170240FE
:10332000DC579183BD8B850737177A001307072079
:103330003357F7028327C4FC98C3B7170240DC5702
:10334000A18393F7F70FBD8BA30DF4FC8347B4FD66
:1033500089EF8327C4FC9843BA878A07BA9713D7A3
:1033600017008327C4FC98C385A00347B4FD854795
:103370006310F7028327C4FC9843BA878607BA977D
:103380008E07BA9713D717008327C4FC98C32DA8BC
:103390000347B4FDBD47631EF7008327C4FC984371
:1033A000BA878A07BA978A073E878327C4FC98C3DF
:1033B00021A88327C4FC9C430347B4FD0907338736
:1033C000E7028327C4FC98C38327C4FC9843B7173C
:1033D0000240DC57BD8B85073357F7028327C4FCB7
:1033E00098C339A8B7170240DC57BD8B850737173C
:1033F0007A00130707203357F7028327C4FC98C3CA
:103400008327C4FC98438327C4FE3307F70283272E
:10341000C4FC98C30347B4FE85476313F7028327B0
:10342000C4FC9C4313D717008327C4FC98C309A886
:103430008327C4FC37177A001307072098C311A00D
:103440000100B7170240DC4393F7070F2322F4FE75
:10345000832744FE91832322F4FEB70700201387BD
:10346000C707832744FEBA979C2393F7F70F232EB1
:10347000F4FC8327C4FC98438327C4FD3357F7002B
:103480008327C4FCD8C3B7170240DC4393F7077007
:103490002322F4FE832744FEA1832322F4FEB707F0
:1034A00000201387C707832744FEBA979C2393F70E
:1034B000F70F232EF4FC8327C4FCD8438327C4FDD5
:1034C0003357F7008327C4FC98C7B7170240D84387
:1034D000916793870780F98F2322F4FE832744FEA8
:1034E000AD832322F4FEB70700201387C707832785
:1034F00044FEBA979C2393F7F70F232EF4FC8327FF
:10350000C4FCD8438327C4FD3357F7008327C4FC8A
:10351000D8C7B7170240D843B167F98F2322F4FE0A
:10352000832744FEB9832322F4FEB70700201387C4
:103530004744832744FEBA979C2393F7F70F232E23
:10354000F4FC8327C4FCD8478327C4FD3357F70214
:103550008327C4FC98CB0100725421618280011141
:1035600022CE00102326A4FE2324B4FE832784FE4B
:1035700099CBB7170240D44BB71702400327C4FEBC
:10358000558FD8CB21A8B7170240D44B8327C4FE50
:1035900013C7F7FFB7170240758FD8CB01007244ED
:1035A00005618280011122CE00102326A4FE23246F
:1035B000B4FE832784FE99CBB7170240944FB71708
:1035C00002400327C4FE558F98CF21A8B7170240A9
:1035D000944F8327C4FE13C7F7FFB7170240758FB8
:1035E00098CF0100724405618280011122CE001043
:1035F0002326A4FE2324B4FE832784FE99CBB71789
:103600000240D44FB71702400327C4FE558FD8CFCE
:1036100021A8B7170240D44F8327C4FE13C7F7FF72
:10362000B7170240758FD8CF0100724405618280C0
:10363000011122CE00102326A4FEB7170240D45752
:10364000B7170240370700F97D17758FD8D7B7171E
:103650000240D4578327C4FE13978701B71702404F
:10366000558FD8D70100724405618280011122CEA6
:1036700000102326A4FEB7170240D457B717024004
:10368000370700F87D17758FD8D7B7170240D45782
:103690008327C4FE1397B701B7170240558FD8D7B9
:1036A0000100724405618280011122CE00102326A0
:1036B000A4FEB7170240D457B7170240370700D00F
:1036C0007D17758FD8D7B7170240D4578327C4FE0C
:1036D0001397C701B7170240558FD8D7010072441E
:1036E00005618280011122CE00102326A4FE8327CB
:1036F000C4FE99CBB7170240D457B717024037071B
:103700000040558FD8D719A8B7170240D457B7171C
:103710000240370700C07D17758FD8D7010072446B
:1037200005618280011122CE00102326A4FEB71766
:103730000240D457B7170240370700801347F7FFFE
:10374000758FD8D7B7170240D4578327C4FE139775
:10375000F701B7170240558FD8D7010072440561B1
:103760008280797122D60018232EA4FC232CB4FC6D
:10377000231704FE8327C4FD9E232317F4FE03575B
:10378000E4FE8D6793870704F98F2317F4FE8327E0
:1037900084FD9A23832784FDBE23D98F13970701C5
:1037A0004183832784FDDE23D98F1397070141834B
:1037B000832784FDFE23D98F139707014183832735
:1037C00084FD9E27D98F139707014183832784FDAA
:1037D000BE27D98F139707014183832784FDDE27F6
:1037E000D98F139707014183832784FDFE27D98F43
:1037F0001397070141838357E4FED98F2317F4FE03
:103800008327C4FD0357E4FE9AA38327C4FDDE2F5C
:10381000139707014183FD779387F77FF98F1397FC
:10382000070141838327C4FDDAAF832784FD9A2BE8
:103830008327C4FD9AAB0100325445618280011197
:1038400022CE00102326A4FE2324B4FE832784FE68
:1038500099CF8327C4FE9E23C207C18393E7070441
:103860001397070141838327C4FE9AA331A88327B6
:10387000C4FE9E23C207C18393F7F7FB139707018A
:1038800041838327C4FE9AA30100724405618280AC
:10389000011122CE00102326A4FEAE872322C4FEEF
:1038A0002315F4FE832744FE8DC38327C4FEDE2345
:1038B0001397070141838357A4FED98F13970701FC
:1038C00041838327C4FEDAA325A08327C4FEDE2319
:1038D0001397070141838357A4FE93C7F7FFC207DD
:1038E000C183F98F1397070141838327C4FEDAA3AD
:1038F0000100724405618280011122CE001023264E
:10390000A4FEAE872315F4FE8327C4FE0357A4FE4E
:10391000DAA70100724405618280011122CE0010F5
:103920002326A4FE8327C4FEDE27C207C1833E856B
:10393000724405618280797122D60018232EA4FC7E
:10394000AE87231DF4FC232604FE8327C4FD9E2797
:103950001397070141838357A4FDF98FC207C183E1
:1039600089C785472326F4FE19A0232604FE832752
:10397000C4FE3E85325445618280797122D600189A
:10398000232EA4FC232CB4FC231704FE8327C4FDA0
:103990009E232317F4FE0327C4FDB7370140938706
:1039A00007C06306F7060327C4FDB707004063009E
:1039B000F7060327C4FDB707004093870740630855
:1039C000F7040327C4FDB7170040938707806300FF
:1039D000F7040327C4FDB7170040938707C06308A7
:1039E000F7020327C4FDB737014093870740630000
:1039F000F7020327C4FDB7570140938707C0630848
:103A0000F7000327C4FDB75701406310F70283573F
:103A1000E4FE93F7F7F82317F4FE832784FDBA2317
:103A20008357E4FED98F2317F4FE0327C4FDB7178D
:103A300000406308F7020327C4FDB71700409387CF
:103A400007406300F7028357E4FE93F7F7CF23178D
:103A5000F4FE832784FDFA238357E4FED98F2317CE
:103A6000F4FE8327C4FD0357E4FE9AA3832784FD55
:103A7000DA238327C4FDDAB7832784FD9A238327BB
:103A8000C4FD9AB70327C4FDB7370140938707C029
:103A90006308F7020327C4FDB73701409387074047
:103AA0006300F7020327C4FDB7570140938707C09F
:103AB0006308F7000327C4FDB7570140631BF700F5
:103AC000832784FD9C271397070141838327C4FD27
:103AD0009ABB8327C4FD0547DAAB01003254456128
:103AE0008280797122D60018232EA4FC232CB4FCEA
:103AF000231504FE231704FE231604FE8327C4FDAA
:103B00009E33C207C18393F7F7EF139707014183F1
:103B10008327C4FD9AB38327C4FD9E332317F4FE85
:103B20008327C4FDDE232316F4FE8327C4FDDE2F86
:103B30002315F4FE8357A4FE93F7F7F82315F4FE3C
:103B40008357A4FEF19B2315F4FE832784FD9A235B
:103B50008357A4FED98F2315F4FE8357E4FE93F711
:103B6000F7DF2317F4FE832784FD9E27A207139710
:103B7000070141838357E4FED98F2317F4FE83277F
:103B800084FDBE23A2071397070141838357E4FEF8
:103B9000D98F2317F4FE0327C4FDB737014093875D
:103BA00007C06308F7020327C4FDB73701409387B6
:103BB00007406300F7020327C4FDB757014093870E
:103BC00007C06308F7000327C4FDB7570140631E11
:103BD000F7080357E4FEFD779387F77FF98F2317E4
:103BE000F4FE832784FDBE27A207139707014183B4
:103BF0008357E4FED98F2317F4FE8357E4FE93F72F
:103C0000F7BF2317F4FE832784FDDE23A207139753
:103C1000070141838357E4FED98F2317F4FE03572E
:103C2000C4FEFD77FD17F98F2316F4FE0357C4FE7B
:103C3000F977FD17F98F2316F4FE832784FDDE271D
:103C400092071397070141838357C4FED98F231628
:103C5000F4FE832784FDFE27920713970701418313
:103C60008357C4FED98F2316F4FE8327C4FD035760
:103C7000C4FEDAA38327C4FD0357A4FEDAAF83276B
:103C800084FDFA238327C4FDDABF8327C4FD0357CD
:103C9000E4FE9AB30100325445618280011122CEC4
:103CA00000102326A4FE2324B4FE832784FE99CF8C
:103CB0008327C4FE9E23C207C18393E7170013978F
:103CC000070141838327C4FE9AA329A88327C4FE42
:103CD0009E23C207C183F99B139707014183832762
:103CE000C4FE9AA30100724405618280011122CEB4
:103CF00000102326A4FE2324B4FE832784FE95C34C
:103D00008327C4FE83D74704139707014183E177D4
:103D1000D98F1397070141838327C4FE2392E704B9
:103D200015A08327C4FE83D7470413970701418357
:103D3000A167FD17F98F1397070141838327C4FEFD
:103D40002392E7040100724405618280011122CEB2
:103D500000102326A4FEAE872322C4FE2315F4FE02
:103D6000832744FE8DC38327C4FEDE2713970701F4
:103D700041838357A4FED98F13970701418383277B
:103D8000C4FEDAA725A08327C4FEDE271397070108
:103D900041838357A4FE93C7F7FFC207C183F98FFE
:103DA0001397070141838327C4FEDAA701007244F9
:103DB00005618280011122CE00102326A4FEAE8769
:103DC0002322C4FE2315F4FE832744FE8DC38327DC
:103DD000C4FEDE271397070141838357A4FED98FC2
:103DE0001397070141838327C4FEDAA725A0832701
:103DF000C4FEDE271397070141838357A4FE93C7B0
:103E0000F7FFC207C183F98F139707014183832707
:103E1000C4FEDAA70100724405618280797122D65E
:103E20000018232EA4FCAE87231DF4FC232604FED9
:103E3000231504FE231404FE8327C4FD9E2B139731
:103E4000070141838357A4FDF98F2315F4FE8327CF
:103E5000C4FDDE271397070141838357A4FDF98F23
:103E60002314F4FE8357A4FE81CB835784FE89C7B5
:103E700085472326F4FE19A0232604FE8327C4FECB
:103E80003E85325445618280011122CE00102326E6
:103E9000A4FEAE872315F4FE8357A4FE93C7F7FF55
:103EA0001397070141838327C4FE9AAB0100724434
:103EB000056182805D7186C6A2C48008232EA4FAA3
:103EC000232CB4FA232404FE232604FE232204FE1A
:103ED000232004FE232E04FC8327C4FB232EF4FCA2
:103EE0008327C4FB9E2BC207C1832324F4FE032730
:103EF00084FEB567FD17F98F2324F4FE832784FB26
:103F0000FE233E87832784FED98F2324F4FE832754
:103F100084FE1397070141838327C4FB9AAB832751
:103F2000C4FBDE27C207C1832324F4FE032784FEDB
:103F3000BD679387379FF98F2324F4FE832784FB83
:103F4000DA23832784FB9E27D98F139707014183A8
:103F5000832784FBBE27D98FC207C1833E8783276F
:103F600084FED98F2324F4FE832784FE1397070150
:103F700041838327C4FBDAA78327C4FBDE2BC20758
:103F8000C1832324F4FE032784FEC1679387F7CF00
:103F9000F98F2324F4FE832784FBDE273E878327C3
:103FA00084FED98F2324F4FE832784FE1397070110
:103FB00041838327C4FBDAAB930784FC3E85EFF093
:103FC0002FA10327C4FDB7470140938707806317DC
:103FD000F700832744FD2326F4FE29A0832704FD50
:103FE0002326F4FE0327C4FEBA878607BA978E07F6
:103FF0003E97832784FB9C438A07B357F70223220B
:10400000F4FE032744FE93074006B357F7029207D6
:104010002324F4FE832784FE13D74700930740062A
:10402000B307F702032744FEB307F7402320F4FE4B
:10403000832704FE92071387270393074006B3578D
:10404000F702BD8B032784FED98F2324F4FE832738
:1040500084FE1397070141838327C4FB9AA70100BD
:10406000B640264461618280011122CE00102326D1
:10407000A4FE2324B4FE832784FE85C38327C4FEC5
:10408000DE271397070141838967D98F13970701AB
:1040900041838327C4FEDAA705A08327C4FEDE2759
:1040A000139707014183F977FD17F98F13970701DC
:1040B00041838327C4FEDAA7010072440561828030
:1040C000011122CE00102326A4FEAE872315F4FE94
:1040D0008357A4FE93F7F71F1397070141838327A4
:1040E000C4FEDAA30100724405618280797122D690
:1040F0000018232EA4FCAE87231DF4FC232604FE07
:104100008327C4FD9E231397070141838357A4FD92
:10411000F98FC207C18389C785472326F4FE19A0FA
:10412000232604FE8327C4FE3E85325445618280E7
:10413000011106CE22CC0010AA87A307F4FE0100CD
:10414000894537350140EFF00FFFAA87F5DB83473C
:10415000F4FEC207C183BE8537350140EFF0CFF9C9
:104160000100854537350140EFF0EFFCAA87F5DB0C
:1041700037350140EFF06FFAAA8793F7F70F3E85C6
:10418000F240624405618280011106CE22CC00100B
:1041900085451145EFF00FC191472312F4FE8D477D
:1041A0002324F4FEC1472326F4FE930744FEBE8574
:1041B000B717014013850780EFE0FF8D0100F24043
:1041C000624405618280411106C622C40008EF00E6
:1041D000C07AEF00B0094D3FB717014093870780C1
:1041E000114798CB0100B240224441018280011165
:1041F00006CE22CC00102326A4FEB71701409387D9
:1042000007801147D8CB2D4525378327C4FEC183AE
:1042100093F7F70F3E85293F8327C4FEA18393F7C9
:10422000F70F3E8531378327C4FE93F7F70F3E859E
:1042300001371305F00FED3D05468D45373501403B
:10424000EFF00FE50100F240624405618280411108
:1042500006C622C40008B71701409387078011479C
:1042600098CB01468D4537350140EFF06FE20100F4
:10427000B240224441018280011106CE22CC0010BE
:10428000AA87A307F4FEB7170140938707C0056705
:10429000D8CBB7170140938707C013070040D8CB8E
:1042A0008347F4FE3E85EF003030B7170140938717
:1042B00007C0056798CB0100F24062440561828027
:1042C000011106CE22CC0010AA87A307F4FEB7176F
:1042D0000140938707C00567D8CBB7170140938784
:1042E00007C01307004098CB8347F4FE3E85EF00DC
:1042F000B02BB7170140938707C0056798CB010023
:10430000F240624405618280011106CE22CC001089
:10431000AA872E87A307F4FEBA872307F4FE8347F4
:10432000F4FE3E85913F8347E4FE3E85513F010008
:10433000F240624405618280011106CE22CC001059
:1043400085452145EFF00FA685452145EFF08FA566
:1043500085452145EFF00FA585452145EFF08FA458
:10436000930700202312F4FE8D472324F4FEC14757
:104370002326F4FE930744FEBE85B717014013853C
:1043800007C0EFE04FF1930700402312F4FE8D4782
:104390002324F4FEC1472326F4FE930744FEBE8582
:1043A000B7170140138507C0EFE0EFEE85679387ED
:1043B00007802312F4FE8D472324F4FEC1472326F1
:1043C000F4FE930744FEBE85B7170140138507C06E
:1043D000EFE06FEC85672312F4FE8D472324F4FE93
:1043E000C1472326F4FE930744FEBE85B71701405C
:1043F000138507C0EFE02FEA0100F2406244056137
:104400008280411106C622C40008B7170140938775
:1044100007C0056713070780D8CB13054006EF00D8
:10442000F07BB7170140938707C005671307078024
:1044300098CB13052003EF00707A0100B2402244AC
:1044400041018280411106C622C40008EF00407B72
:10445000EF00900AD5357537B7170140938707C02D
:104460001307002098CB1305F00C39350145893D21
:104470001305900CB1351305000399351305D00EC3
:10448000E53B130540062D3D0D451D3D49450D3DC0
:104490001305100835351305800EF93B1305500838
:1044A00005354145313D1305A007193D1305B00CF5
:1044B000E1331305900329351305C0021135014579
:1044C000013513054003ED3B0945DD3B1305700F36
:1044D000653313050002ED331305A00E713B014552
:1044E000C5330145F13B1305000C79336D45C93BDC
:1044F0001305100C51330145E1331305500CAD3B4E
:1045000013050003753B130500035D3B1305700C99
:10451000A5331305700B6D3313056003B13B2145C3
:1045200045331305A003893B13055005513B130583
:10453000100BEFF07FD4014561336945513313050A
:10454000600BEFF07FD32945A53B1305200A8D3B77
:104550001305200FEFF05FD201459D331305600274
:10456000EFF09FD10545A93B1305000EEFF0DFD01A
:104570003D45B9331305A002EFF09FD41305800227
:10458000EFF01FD42145EFF0BFD33945EFF05FD3F3
:104590002145EFF0FFD213054005EFF07FD2130560
:1045A000900AEFF0FFD113053004EFF07FD12945D9
:1045B000EFF01FD13D45EFF0BFD00145EFF05FD0E8
:1045C0000145EFF0FFCF0145EFF09FCF0145EFF040
:1045D0003FCF1305100EEFF03FCA0145EFF05FCE5D
:1045E0005545EFF0FFCD5D45EFF09FCD1D45EFF058
:1045F0003FCD4545EFF0DFCC1945EFF07FCC1305FB
:10460000B002EFF0FFCB13056005EFF07FCB130591
:10461000C003EFF0FFCA1545EFF09FCA4145EFF028
:104620003FCA3D45EFF0DFC91305F003EFF05FC966
:104630001305F003EFF0DFC83D45EFF07FC8130529
:10464000A002EFF07FC30145EFF09FC70145EFF0F7
:104650003FC70545EFF0DFC65D45EFF07FC61305A8
:10466000B002EFF07FC10145EFF09FC50145EFF0CB
:104670003FC50545EFF0DFC41305F003EFF05FC45D
:104680004545EFF07FBF13058007EF003055130558
:104690009002EFF07FBE094531281305C002EFF00C
:1046A000BFBD13059002EFF03FBD0100B2402244B0
:1046B00041018280011106CE22CC0010AA87A307F7
:1046C000F4FE8347F4FE0547638CE7020547634425
:1046D000F70089CB59A009476383E7040D47638F2F
:1046E000E704A5A8130780112398E1841307000F9E
:1046F0002399E184A14513056003EFF0FFC0B1A841
:104700001307000F2398E184130780112399E18494
:104710009305800613056003EFF01FBF3DA8130744
:1047200080112398E1841307000F2399E1849305F6
:10473000800C13056003EFF03FBD05A01307000FC9
:104740002398E184130780112399E1849305800A5B
:1047500013056003EFF05FBB01000100F24062440B
:1047600005618280397106DE22DC8000AA8723225F
:10477000E4FC2317F4FCAE872316F4FCB287231560
:10478000F4FCB6872314F4FC232604FE0357E4FC50
:104790008357A4FCBA97C207C183FD172313F4FE05
:1047A0000357C4FC835784FCBA97C207C183FD1723
:1047B0002312F4FE1305A002EFF01FAC8357E4FCB4
:1047C000A183C207C18393F7F70F3E85EFF05FAF78
:1047D0008357E4FC93F7F70F3E85EFF07FAE8357E6
:1047E00064FEA183C207C18393F7F70F3E85EFF004
:1047F0003FAD835764FE93F7F70F3E85EFF05FAC54
:104800001305B002EFF05FA78357C4FCA183C20772
:10481000C18393F7F70F3E85EFF09FAA8357C4FC3F
:1048200093F7F70F3E85EFF0BFA9835744FEA183AE
:10483000C207C18393F7F70F3E85EFF07FA8835738
:1048400044FE93F7F70F3E85EFF09FA71305C002D4
:10485000EFF09FA2B7170140938707C00567D8CB39
:10486000B7170140938707C01307004098CB035741
:10487000A4FC835784FCB307F7022320F4FE8327AC
:1048800004FEA1832324F4FE832704FE93F7F70F8D
:10489000232EF4FC032544FCEFF07F958327C4FE10
:1048A00013979700B70700209387475CBA97930543
:1048B00000203E8575249DA0010093050008373532
:1048C0000140EFF04F872A878547E308F7FE8327EB
:1048D00084FEFD172324F4FE8327C4FE139797005C
:1048E000B70700209387475CBA97930500203E8561
:1048F000112B8327C4FE93B7170093F7F70F2326D6
:10490000F4FE8327C4FE13979700B7070020938710
:10491000475CBA97930500203E859924832784FE3F
:10492000C1FF01009305000837350140EFF0AF806B
:104930002A878547E308F7FE8327C4FE139797006D
:10494000B70700209387475C3E978327C4FDC207C3
:10495000C1838607C207C183BE853A8565210100F0
:1049600037050200EFD09FE2AA87FDDBEFF03F8E14
:104970000100F250625421618280797106D622D4FE
:104980000018232204FE232404FE232604FE2328E9
:1049900004FC232A04FC232C04FC232E04FC2310F7
:1049A00004FE8545856713854700EFE0BFBF930789
:1049B00000022312F4FEE1472326F4FE8D47232450
:1049C000F4FE930744FEBE85B717014013850780A8
:1049D000EFE06F8C930700042312F4FE9147232627
:1049E000F4FE930744FEBE85B71701401385078088
:1049F000EFE06F8A930700082312F4FEE1472326B5
:104A0000F4FE8D472324F4FE930744FEBE85B717BA
:104A1000014013850780EFE00F88231804FC9307FB
:104A200040102319F4FC231A04FC231B04FC231C50
:104A300004FC93070020231DF4FCA147231EF4FC73
:104A4000231F04FC9D472310F4FE930704FDBE853D
:104A500037350140EFE0FFD0854537350140EFE0C5
:104A60001FDE0100B250225445618280397106DE9A
:104A700022DC8000232204FC232404FC232604FCE3
:104A8000232804FC232A04FC232C04FC232E04FCEE
:104A9000232004FE232204FE232404FE232604FEF6
:104AA00085450545EFE0BFABB70702401385070317
:104AB000EFD01F8CB7370140B1072322F4FC938756
:104AC00081802324F4FCC1472326F4FC232804FC22
:104AD000232A04FC232C04FC232E04FC232004FEA4
:104AE000232204FE89672324F4FE232604FE930771
:104AF00044FCBE85B707024013850703EFD07FB89B
:104B0000B70702401385C701EFD09F86B737014032
:104B1000B1072322F4FC232404FC232604FC2328CD
:104B200004FC232A04FC93070008232CF4FC232E06
:104B300004FC232004FE232204FE89672324F4FEC0
:104B4000232604FE930744FCBE85B7070240138565
:104B5000C701EFD01FB30100F2506254216182807F
:104B6000011106CE22CC00102326A4FEAE87231509
:104B7000F4FE01009305000837350140EFE0BFDB8C
:104B80002A878547E308F7FE8145B707024013856A
:104B90000703EFD09FB98145B70702401385C701CE
:104BA000EFD0BFB813050020EFD0DFC513050020FC
:104BB000EFD05FC5B7070240938707030357A4FEF2
:104BC000D8C3B7070240F1070327C4FED8C7B70709
:104BD0000240F1070357A4FED8C38545B70702403A
:104BE00013850703EFD07FB48545B70702401385CF
:104BF000C701EFD09FB30100F2406244056182809B
:104C0000797106D622D40018232204FE232404FE40
:104C1000232604FE232804FC232A04FC232C04FC62
:104C2000232E04FC231004FE85453145EFE09F97B9
:104C300085451165EFE07F9B89672312F4FEE1470C
:104C40002326F4FE8D472324F4FE930744FEBE85FD
:104C5000B7170140138507C0EFD0FFE39167231218
:104C6000F4FE91472326F4FE930744FEBE85B71752
:104C70000140138507C0EFD01FE2E1772312F4FE55
:104C8000E1472326F4FE8D472324F4FE930744FED8
:104C9000BE85B7170140138507C0EFD0DFDFF1777E
:104CA0002318F4FC930740102319F4FC231A04FC86
:104CB000231B04FC231C04FC93070020231DF4FC8D
:104CC000231E04FC231F04FC9D472310F4FE9307BE
:104CD00004FDBE85B747004013850780EFE07FA83D
:104CE0008545B747004013850780EFE05FB50100B9
:104CF000B250225445618280397106DE22DC800088
:104D0000232204FC232404FC232604FC232804FC83
:104D1000232A04FC232C04FC232E04FC232004FE61
:104D2000232204FE232404FE232604FE8545054594
:104D3000EFE0FF82B707024013858705EFD04FE30E
:104D4000B74700409387C7802322F4FC232404FC48
:104D5000C1472326F4FC232804FC232A04FC9307E0
:104D60000008232CF4FC232E04FC232004FE232221
:104D700004FE89672324F4FE232604FE930744FCE3
:104D8000BE85B707024013858705EFD09F8F054684
:104D90008945B747004013850780EFE07FAF0100EA
:104DA000F250625421618280011106CE22CC0010A3
:104DB000AA87A307F4FE01008945B7470040138581
:104DC0000780EFE05FB7AA87E5DB8347F4FEC20701
:104DD000C183BE85B747004013850780EFE0DFB190
:104DE000010093050008B747004013850780EFE0F6
:104DF0009FB42A878547E306F7FE0100F24062442C
:104E000005618280011106CE22CC00102326A4FE6B
:104E1000AE872315F4FE010093050008B747004054
:104E200013850780EFE03FB12A878547E306F7FE49
:104E30008145B707024013858705EFD01F8F3705DF
:104E40000200EFD03F9CB7070240938787050327F6
:104E5000C4FED8C7B7070240938787050357A4FE4F
:104E6000D8C38545B707024013858705EFD0FF8B70
:104E70000100F240624405618280597186D6A2D455
:104E80008018232204FE232404FE232604FE232C60
:104E900004FC232E04FC231004FE232404FC2326FC
:104EA00004FC232804FC232A04FC232E04F82320DA
:104EB00004FA232204FA232404FA232604FA2328DA
:104EC00004FA232A04FA232C04FA232E04FA2320BA
:104ED00004FC232204FC85450945EFE04FE88545A5
:104EE000B707100013859700EFE0CFEB8545B707B4
:104EF000158013850702EFD01FE4930700022312E9
:104F0000F4FEE1472326F4FE8D472324F4FE9307A5
:104F100044FEBE85B7170140138507C0EFD0BFB769
:104F2000231D04FC93079005231EF4FC231C04FCA2
:104F3000930784FDBE8537550140EFE01FA493071A
:104F400000062314F4FC85472315F4FC231804FC05
:104F5000231704FC930784FCBE8537550140EFE01E
:104F60005FB8B70702401385074CEFD06FC0B75743
:104F700001409387C703232EF4F8C1472322F4FA94
:104F8000232604FA930700082328F4FA9307001055
:104F9000232AF4FA93070040232CF4FA232E04FA70
:104FA0008D672320F4FC232204FC9307C4F9BE85FB
:104FB000B70702401385074CEFD0AFEC05469305C9
:104FC000001037550140EFE0FFDE854537550140C1
:104FD000EFE0DFD10100B6502654656182804111B7
:104FE00006C622C400081305C012BD260100B24047
:104FF000224441018280797106D622D426D200183B
:10500000232EA4FC0A85AA84231704FE1305007727
:105010002314A4FE035584FEAA88FD18232214FF3E
:105020002A8381439358C3011397430033E7E80071
:1050300093164300AA85014613D7C50113184600ED
:105040003368070193974500AA878607BD079183B8
:1050500092073301F1408A878507858386072320DD
:10506000F4FEEFF0DFF7231504FE21AAA147231673
:10507000F4FEA9A08357A4FE8A070327C4FDBA97AC
:1050800098438357C4FE3317F700B7078000F98FA2
:1050900081C79307D00311A0F5470357E4FE832689
:1050A00004FE060736971EA38357E4FE85072317E1
:1050B000F4FE8357C4FE85072316F4FE0357C4FE8F
:1050C000BD47E3F9E7FA231604FEA9A08357A4FE1F
:1050D0008A070327C4FDBA9798438357C4FE331742
:1050E000F700B7078000F98F81C79307D00311A09D
:1050F000F5470357E4FE832604FE060736971EA3F2
:105100008357E4FE85072317F4FE8357C4FE850703
:105110002316F4FE0357C4FE9D47E3F9E7FAC1479F
:105120002316F4FEA9A08357A4FE8A070327C4FD13
:10513000BA9798438357C4FE3317F700B707800028
:10514000F98F81C79307D00311A0F5470357E4FEF9
:10515000832604FE060736971EA38357E4FE8507C1
:105160002317F4FE8357C4FE85072316F4FE035766
:10517000C4FEDD47E3F9E7FA8357A4FE850723154C
:10518000F4FE0357A4FE9307E004E3F1E7EE2316D1
:1051900004FE1DA08357E4FE032704FE8607BA978A
:1051A000239007008357E4FE85072317F4FE8357F7
:1051B000C4FE85072316F4FE0357C4FE9D47E3FB98
:1051C000E7FC8145B70702401385074CEFD0EFD5C8
:1051D000032704FEB70702409387074CD8C78357BD
:1051E00084FEBE85B70702401385074CEFD0EFD78A
:1051F0008545B70702401385074CEFD00FD385458F
:1052000037550140EFE09FA9010037250020EFD07E
:10521000EFD7AA87FDDB814537550140EFE01FA896
:105220008145B70702401385074CEFD00FD03725D3
:105230000020EFD02FDD26810100130104FDB250C4
:105240002254925445618280797122D60018232E0F
:10525000A4FC232604FE0DA08327C4FE8A0703278F
:10526000C4FDBA97370733001307370398C3832762
:10527000C4FE85072326F4FE0327C4FE9547E3DD1D
:10528000E7FC0100325445618280411106C622C408
:105290000008B70700201385C708EFF0FFFAEFF00A
:1052A000DFBD0100B240224441018280411106C6A7
:1052B00022C40008B70700201385C708EFF0BFD34A
:1052C0000100B240224441018280411106C622C43D
:1052D0000008B70700201385C708EFF0DFD11305DA
:1052E000800CED28B70700201385871CEFF0BFD096
:1052F0001305800CE520B707002013854730EFF039
:105300009FCF1305800CD9280100B24022444101EF
:105310008280411122C60008B707002003A7074476
:10532000B7177A0093870720B357F70213F7F70FE1
:10533000238AE18483C7418513970701418393073B
:10534000803EB307F702139707014183239BE18453
:105350000100324441018280797122D60018232E47
:10536000A4FC37F700E0544337F700E0F99A54C340
:1053700003C74185BA860327C4FD3307D702232616
:10538000E4FE37F700E08326C4FEB68701481CCB55
:10539000232A0701B7F700E09843B7F700E0136747
:1053A000070198C3B7F700E09843B7F700E0136729
:1053B000170298C30100B7F700E0DC4313F71700AA
:1053C0008547E31AF7FEB7F700E09843B7F700E028
:1053D000799B98C30100325445618280797122D64D
:1053E0000018232EA4FC37F700E0544337F700E001
:1053F000F99A54C303D76185BA860327C4FD3307DE
:10540000D7022326E4FE37F700E08326C4FEB687E2
:1054100001481CCB232A0701B7F700E09843B7F7F0
:1054200000E01367070198C3B7F700E09843B7F7A8
:1054300000E01367170298C30100B7F700E0DC43F0
:1054400013F717008547E31AF7FEB7F700E0984314
:10545000B7F700E0799B98C3010032544561828020
:1054600001476314E60001458280B307E5000507A4
:10547000B386E5009C2383C6F6FFE384D7FE33851D
:10548000D7408280B3C7A5008D8B3307C50081E765
:105490008D4763EDC700AA87637EE50894218507E1
:1054A0008505A38FD7FEE3EBE7FE82809376350078
:1054B000AA8789CA942185078505A38FD7FE93F60D
:1054C0003700C5BF9376C7FF138606FE63F0C70695
:1054D00083A3050083A2450083AF850003AFC50009
:1054E00083AE050103AE450103A3850183A8C50171
:1054F0009385450223A0770003A8C5FF23A2570088
:1055000023A4F70123A6E70123A8D70123AAC701F3
:1055100023AC670023AE17019387470223AE07FF32
:1055200075B790419107910523AEC7FEE3EBD7FE17
:10553000E3E6E7F682800000C60A0000C60A000023
:105540002E0A00007A0A0000C60A0000C60A0000FF
:10555000C60A0000C60A0000C60A0000AA0F000022
:1055600092090000E6090000D00E00002E0D000098
:105570009E0F0000CC0D00009E0F0000E00C00000C
:10558000EE0A00009E0F0000F20C0000160D000055
:10559000B40E0000AE0F0000780C0000180B0000E5
:1055A0002E0B0000F00B0000780C0000780C0000BF
:1055B000780C0000780C0000780C0000780C0000DB
:1055C000780C0000780C0000780C0000780C0000CB
:1055D000780C0000780C0000780C0000780C0000BB
:1055E000780C0000780C0000780C0000780C0000AB
:1055F000780C0000780C0000780C0000780C00009B
:10560000780C0000780C0000780C0000780C00008A
:10561000780C0000780C0000780C0000600B000093
:10562000A60B00001201000200000040861A00FED6
:10563000000101020301000009023B00020100A079
:1056400032090400000103010100092111010001D8
:10565000223E000705810308000A09040100010336
:105660000102000921100100012234000705820314
:105670000800010005010906A101050719E029E755
:1056800015002501750195088102950175088101B4
:105690009503750105081901290391029505750106
:1056A00091019506750826FF0005071900299181CB
:1056B00000C0000005010902A1010901A1000509BE
:1056C000190129031500250175019503810275054E
:1056D0009501810105010930093109381581257FBE
:1056E000750895038106C0C00E037700630068004B
:1056F0002E0063006E0000001203430048003300D8
:1057000032005600330030007800000016033000ED
:1057100031003200330034003500360037003800E5
:04572000390000004C
:10572400000000000000000001020304060708094D
:10573400293A3B3C3D3E3F404142434445464C00B0
:105744000000351E1F20212223242526272D2E2A42
:10575400000000002B00141A0815171C180C121353
:105764002F30310000003900041607090A0B0D0E12
:105774000F3334280000000002001D1B0619051118
:1057840010363738002000005200010008040000E1
:10579400002C0000004000FF1050514F000000009A
:1057A400010203040102030406070809330033005D
:1057B40000FF0000FF0000000033FF00FF00FF00B7
:1057C400FF330000000000000000000000000000A3
:1057D40000000000000000000000000000000000C5
:1057E40000000000000000000000000000000000B5
:1057F40000000000000000000000000000000000A5
:105804000000000000000000000000000000000094
:105814000000000000000000000000000000000084
:105824000000000000000000000000000000000074
:105834000000000000000000000000000000000064
:105844000000000000000000000000000000000054
:105854000000000000000000000000000000000044
:105864000000000000000000000000000000000034
:105874000000000000000000000000000000000024
:105884000000000000000000000000000000000014
:105894000000000000000000000000000000000004
:1058A40000000000000000000000000000000000F4
:1058B40000000000000000000000000000000000E4
:1058C40000000000000000000000000000000000D4
:1058D40000000000000000000000000000000000C4
:1058E400000000000000000000FF0000FF000000B6
:1058F4000000FF00FFFF0000FF00FF0000FFFF00AB
:105904000000000000000000000000000000000093
:105914000000000000000000000000000000000083
:105924000000000000000000000000000000000073
:105934000000000000000000000000000000000063
:105944000000000000000000000000000000000053
:105954000000000000000000000000000000000043
:105964000000000000000000000000000000000033
:105974000000000000000000000000000000000023
:105984000000000000000000000000000000000013
:105994000000000000000000000000000000000003
:1059A40000000000000000000000000000000000F3
:1059B40000000000000000000000000000000000E3
:1059C40000000000000000000000000000000000D3
:1059D40000000000000000000000000000000000C3
:1059E40000000000000000000000000000000000B3
:1059F40000000000000000000000000000000000A3
:105A04000000000000000000000000000000000092
:105A14000000000000000000000000000000000082
:105A240000000000FF0000000000FF0000FF000075
:105A340000FFFF00FFFF0000FF00FF000000000068
:105A44000000000000000000000000000000000052
:105A54000000000000000000000000000000000042
:105A64000000000000000000000000000000000032
:105A74000000000000000000000000000000000022
:105A84000000000000000000000000000000000012
:105A94000000000000000000000000000000000002
:105AA40000000000000000000000000000000000F2
:105AB40000000000000000000000000000000000E2
:105AC40000000000000000000000000000000000D2
